{
  "_format": "hh-sol-artifact-1",
  "contractName": "nft",
  "sourceName": "contracts/nft.sol",
  "abi": [
    {
      "inputs": [],
      "stateMutability": "nonpayable",
      "type": "constructor"
    },
    {
      "inputs": [],
      "name": "ApprovalCallerNotOwnerNorApproved",
      "type": "error"
    },
    {
      "inputs": [],
      "name": "ApprovalQueryForNonexistentToken",
      "type": "error"
    },
    {
      "inputs": [],
      "name": "BalanceQueryForZeroAddress",
      "type": "error"
    },
    {
      "inputs": [],
      "name": "MintERC2309QuantityExceedsLimit",
      "type": "error"
    },
    {
      "inputs": [],
      "name": "MintToZeroAddress",
      "type": "error"
    },
    {
      "inputs": [],
      "name": "MintZeroQuantity",
      "type": "error"
    },
    {
      "inputs": [],
      "name": "OwnerQueryForNonexistentToken",
      "type": "error"
    },
    {
      "inputs": [],
      "name": "OwnershipNotInitializedForExtraData",
      "type": "error"
    },
    {
      "inputs": [],
      "name": "TransferCallerNotOwnerNorApproved",
      "type": "error"
    },
    {
      "inputs": [],
      "name": "TransferFromIncorrectOwner",
      "type": "error"
    },
    {
      "inputs": [],
      "name": "TransferToNonERC721ReceiverImplementer",
      "type": "error"
    },
    {
      "inputs": [],
      "name": "TransferToZeroAddress",
      "type": "error"
    },
    {
      "inputs": [],
      "name": "URIQueryForNonexistentToken",
      "type": "error"
    },
    {
      "anonymous": false,
      "inputs": [
        {
          "indexed": true,
          "internalType": "address",
          "name": "owner",
          "type": "address"
        },
        {
          "indexed": true,
          "internalType": "address",
          "name": "approved",
          "type": "address"
        },
        {
          "indexed": true,
          "internalType": "uint256",
          "name": "tokenId",
          "type": "uint256"
        }
      ],
      "name": "Approval",
      "type": "event"
    },
    {
      "anonymous": false,
      "inputs": [
        {
          "indexed": true,
          "internalType": "address",
          "name": "owner",
          "type": "address"
        },
        {
          "indexed": true,
          "internalType": "address",
          "name": "operator",
          "type": "address"
        },
        {
          "indexed": false,
          "internalType": "bool",
          "name": "approved",
          "type": "bool"
        }
      ],
      "name": "ApprovalForAll",
      "type": "event"
    },
    {
      "anonymous": false,
      "inputs": [
        {
          "indexed": true,
          "internalType": "uint256",
          "name": "fromTokenId",
          "type": "uint256"
        },
        {
          "indexed": false,
          "internalType": "uint256",
          "name": "toTokenId",
          "type": "uint256"
        },
        {
          "indexed": true,
          "internalType": "address",
          "name": "from",
          "type": "address"
        },
        {
          "indexed": true,
          "internalType": "address",
          "name": "to",
          "type": "address"
        }
      ],
      "name": "ConsecutiveTransfer",
      "type": "event"
    },
    {
      "anonymous": false,
      "inputs": [
        {
          "indexed": true,
          "internalType": "address",
          "name": "previousOwner",
          "type": "address"
        },
        {
          "indexed": true,
          "internalType": "address",
          "name": "newOwner",
          "type": "address"
        }
      ],
      "name": "OwnershipTransferred",
      "type": "event"
    },
    {
      "anonymous": false,
      "inputs": [
        {
          "indexed": true,
          "internalType": "address",
          "name": "from",
          "type": "address"
        },
        {
          "indexed": true,
          "internalType": "address",
          "name": "to",
          "type": "address"
        },
        {
          "indexed": true,
          "internalType": "uint256",
          "name": "tokenId",
          "type": "uint256"
        }
      ],
      "name": "Transfer",
      "type": "event"
    },
    {
      "inputs": [
        {
          "internalType": "address",
          "name": "to",
          "type": "address"
        },
        {
          "internalType": "uint256",
          "name": "tokenId",
          "type": "uint256"
        }
      ],
      "name": "approve",
      "outputs": [],
      "stateMutability": "payable",
      "type": "function"
    },
    {
      "inputs": [
        {
          "internalType": "address",
          "name": "owner",
          "type": "address"
        }
      ],
      "name": "balanceOf",
      "outputs": [
        {
          "internalType": "uint256",
          "name": "",
          "type": "uint256"
        }
      ],
      "stateMutability": "view",
      "type": "function"
    },
    {
      "inputs": [
        {
          "internalType": "uint256",
          "name": "tokenId",
          "type": "uint256"
        }
      ],
      "name": "getApproved",
      "outputs": [
        {
          "internalType": "address",
          "name": "",
          "type": "address"
        }
      ],
      "stateMutability": "view",
      "type": "function"
    },
    {
      "inputs": [
        {
          "internalType": "address",
          "name": "owner",
          "type": "address"
        },
        {
          "internalType": "address",
          "name": "operator",
          "type": "address"
        }
      ],
      "name": "isApprovedForAll",
      "outputs": [
        {
          "internalType": "bool",
          "name": "",
          "type": "bool"
        }
      ],
      "stateMutability": "view",
      "type": "function"
    },
    {
      "inputs": [
        {
          "internalType": "uint256",
          "name": "quantity",
          "type": "uint256"
        }
      ],
      "name": "mint",
      "outputs": [],
      "stateMutability": "nonpayable",
      "type": "function"
    },
    {
      "inputs": [],
      "name": "name",
      "outputs": [
        {
          "internalType": "string",
          "name": "",
          "type": "string"
        }
      ],
      "stateMutability": "view",
      "type": "function"
    },
    {
      "inputs": [],
      "name": "owner",
      "outputs": [
        {
          "internalType": "address",
          "name": "",
          "type": "address"
        }
      ],
      "stateMutability": "view",
      "type": "function"
    },
    {
      "inputs": [
        {
          "internalType": "uint256",
          "name": "tokenId",
          "type": "uint256"
        }
      ],
      "name": "ownerOf",
      "outputs": [
        {
          "internalType": "address",
          "name": "",
          "type": "address"
        }
      ],
      "stateMutability": "view",
      "type": "function"
    },
    {
      "inputs": [
        {
          "internalType": "uint8",
          "name": "_tokenId",
          "type": "uint8"
        }
      ],
      "name": "promptDescription",
      "outputs": [
        {
          "internalType": "string",
          "name": "",
          "type": "string"
        }
      ],
      "stateMutability": "pure",
      "type": "function"
    },
    {
      "inputs": [],
      "name": "renounceOwnership",
      "outputs": [],
      "stateMutability": "nonpayable",
      "type": "function"
    },
    {
      "inputs": [
        {
          "internalType": "address",
          "name": "from",
          "type": "address"
        },
        {
          "internalType": "address",
          "name": "to",
          "type": "address"
        },
        {
          "internalType": "uint256",
          "name": "tokenId",
          "type": "uint256"
        }
      ],
      "name": "safeTransferFrom",
      "outputs": [],
      "stateMutability": "payable",
      "type": "function"
    },
    {
      "inputs": [
        {
          "internalType": "address",
          "name": "from",
          "type": "address"
        },
        {
          "internalType": "address",
          "name": "to",
          "type": "address"
        },
        {
          "internalType": "uint256",
          "name": "tokenId",
          "type": "uint256"
        },
        {
          "internalType": "bytes",
          "name": "_data",
          "type": "bytes"
        }
      ],
      "name": "safeTransferFrom",
      "outputs": [],
      "stateMutability": "payable",
      "type": "function"
    },
    {
      "inputs": [
        {
          "internalType": "address",
          "name": "operator",
          "type": "address"
        },
        {
          "internalType": "bool",
          "name": "approved",
          "type": "bool"
        }
      ],
      "name": "setApprovalForAll",
      "outputs": [],
      "stateMutability": "nonpayable",
      "type": "function"
    },
    {
      "inputs": [
        {
          "internalType": "bytes4",
          "name": "interfaceId",
          "type": "bytes4"
        }
      ],
      "name": "supportsInterface",
      "outputs": [
        {
          "internalType": "bool",
          "name": "",
          "type": "bool"
        }
      ],
      "stateMutability": "view",
      "type": "function"
    },
    {
      "inputs": [],
      "name": "symbol",
      "outputs": [
        {
          "internalType": "string",
          "name": "",
          "type": "string"
        }
      ],
      "stateMutability": "view",
      "type": "function"
    },
    {
      "inputs": [
        {
          "internalType": "uint256",
          "name": "tokenId",
          "type": "uint256"
        }
      ],
      "name": "tokenURI",
      "outputs": [
        {
          "internalType": "string",
          "name": "",
          "type": "string"
        }
      ],
      "stateMutability": "view",
      "type": "function"
    },
    {
      "inputs": [],
      "name": "totalSupply",
      "outputs": [
        {
          "internalType": "uint256",
          "name": "",
          "type": "uint256"
        }
      ],
      "stateMutability": "view",
      "type": "function"
    },
    {
      "inputs": [
        {
          "internalType": "address",
          "name": "from",
          "type": "address"
        },
        {
          "internalType": "address",
          "name": "to",
          "type": "address"
        },
        {
          "internalType": "uint256",
          "name": "tokenId",
          "type": "uint256"
        }
      ],
      "name": "transferFrom",
      "outputs": [],
      "stateMutability": "payable",
      "type": "function"
    },
    {
      "inputs": [
        {
          "internalType": "address",
          "name": "newOwner",
          "type": "address"
        }
      ],
      "name": "transferOwnership",
      "outputs": [],
      "stateMutability": "nonpayable",
      "type": "function"
    }
  ],
  "bytecode": "0x608060405260056009556005600a553480156200001b57600080fd5b506040518060400160405280600781526020017f436172204e4654000000000000000000000000000000000000000000000000008152506040518060400160405280600381526020017f4254430000000000000000000000000000000000000000000000000000000000815250816002908162000099919062000437565b508060039081620000ab919062000437565b50620000bc620000ea60201b60201c565b6000819055505050620000e4620000d8620000ef60201b60201c565b620000f760201b60201c565b6200051e565b600090565b600033905090565b6000600860009054906101000a900473ffffffffffffffffffffffffffffffffffffffff16905081600860006101000a81548173ffffffffffffffffffffffffffffffffffffffff021916908373ffffffffffffffffffffffffffffffffffffffff1602179055508173ffffffffffffffffffffffffffffffffffffffff168173ffffffffffffffffffffffffffffffffffffffff167f8be0079c531659141344cd1fd0a4f28419497f9722a3daafe3b4186f6b6457e060405160405180910390a35050565b600081519050919050565b7f4e487b7100000000000000000000000000000000000000000000000000000000600052604160045260246000fd5b7f4e487b7100000000000000000000000000000000000000000000000000000000600052602260045260246000fd5b600060028204905060018216806200023f57607f821691505b602082108103620002555762000254620001f7565b5b50919050565b60008190508160005260206000209050919050565b60006020601f8301049050919050565b600082821b905092915050565b600060088302620002bf7fffffffffffffffffffffffffffffffffffffffffffffffffffffffffffffffff8262000280565b620002cb868362000280565b95508019841693508086168417925050509392505050565b6000819050919050565b6000819050919050565b600062000318620003126200030c84620002e3565b620002ed565b620002e3565b9050919050565b6000819050919050565b6200033483620002f7565b6200034c62000343826200031f565b8484546200028d565b825550505050565b600090565b6200036362000354565b6200037081848462000329565b505050565b5b8181101562000398576200038c60008262000359565b60018101905062000376565b5050565b601f821115620003e757620003b1816200025b565b620003bc8462000270565b81016020851015620003cc578190505b620003e4620003db8562000270565b83018262000375565b50505b505050565b600082821c905092915050565b60006200040c60001984600802620003ec565b1980831691505092915050565b6000620004278383620003f9565b9150826002028217905092915050565b6200044282620001bd565b67ffffffffffffffff8111156200045e576200045d620001c8565b5b6200046a825462000226565b620004778282856200039c565b600060209050601f831160018114620004af57600084156200049a578287015190505b620004a6858262000419565b86555062000516565b601f198416620004bf866200025b565b60005b82811015620004e957848901518255600182019150602085019450602081019050620004c2565b8683101562000509578489015162000505601f891682620003f9565b8355505b6001600288020188555050505b505050505050565b6124f2806200052e6000396000f3fe6080604052600436106101145760003560e01c806370a08231116100a0578063a22cb46511610064578063a22cb4651461038a578063b88d4fde146103b3578063c87b56dd146103cf578063e985e9c51461040c578063f2fde38b1461044957610114565b806370a08231146102b7578063715018a6146102f45780638da5cb5b1461030b57806395d89b4114610336578063a0712d681461036157610114565b8063108a945e116100e7578063108a945e146101da57806318160ddd1461021757806323b872dd1461024257806342842e0e1461025e5780636352211e1461027a57610114565b806301ffc9a71461011957806306fdde0314610156578063081812fc14610181578063095ea7b3146101be575b600080fd5b34801561012557600080fd5b50610140600480360381019061013b9190611998565b610472565b60405161014d91906119e0565b60405180910390f35b34801561016257600080fd5b5061016b610504565b6040516101789190611a8b565b60405180910390f35b34801561018d57600080fd5b506101a860048036038101906101a39190611ae3565b610596565b6040516101b59190611b51565b60405180910390f35b6101d860048036038101906101d39190611b98565b610615565b005b3480156101e657600080fd5b5061020160048036038101906101fc9190611c11565b610759565b60405161020e9190611a8b565b60405180910390f35b34801561022357600080fd5b5061022c61088d565b6040516102399190611c4d565b60405180910390f35b61025c60048036038101906102579190611c68565b6108a4565b005b61027860048036038101906102739190611c68565b610bc6565b005b34801561028657600080fd5b506102a1600480360381019061029c9190611ae3565b610be6565b6040516102ae9190611b51565b60405180910390f35b3480156102c357600080fd5b506102de60048036038101906102d99190611cbb565b610bf8565b6040516102eb9190611c4d565b60405180910390f35b34801561030057600080fd5b50610309610cb0565b005b34801561031757600080fd5b50610320610cc4565b60405161032d9190611b51565b60405180910390f35b34801561034257600080fd5b5061034b610cee565b6040516103589190611a8b565b60405180910390f35b34801561036d57600080fd5b5061038860048036038101906103839190611ae3565b610d80565b005b34801561039657600080fd5b506103b160048036038101906103ac9190611d14565b610e44565b005b6103cd60048036038101906103c89190611e89565b610f4f565b005b3480156103db57600080fd5b506103f660048036038101906103f19190611ae3565b610fc2565b6040516104039190611a8b565b60405180910390f35b34801561041857600080fd5b50610433600480360381019061042e9190611f0c565b611021565b60405161044091906119e0565b60405180910390f35b34801561045557600080fd5b50610470600480360381019061046b9190611cbb565b6110b5565b005b60006301ffc9a760e01b827bffffffffffffffffffffffffffffffffffffffffffffffffffffffff191614806104cd57506380ac58cd60e01b827bffffffffffffffffffffffffffffffffffffffffffffffffffffffff1916145b806104fd5750635b5e139f60e01b827bffffffffffffffffffffffffffffffffffffffffffffffffffffffff1916145b9050919050565b60606002805461051390611f7b565b80601f016020809104026020016040519081016040528092919081815260200182805461053f90611f7b565b801561058c5780601f106105615761010080835404028352916020019161058c565b820191906000526020600020905b81548152906001019060200180831161056f57829003601f168201915b5050505050905090565b60006105a182611138565b6105d7576040517fcf4700e400000000000000000000000000000000000000000000000000000000815260040160405180910390fd5b6006600083815260200190815260200160002060000160009054906101000a900473ffffffffffffffffffffffffffffffffffffffff169050919050565b600061062082610be6565b90508073ffffffffffffffffffffffffffffffffffffffff16610641611197565b73ffffffffffffffffffffffffffffffffffffffff16146106a45761066d81610668611197565b611021565b6106a3576040517fcfb3b94200000000000000000000000000000000000000000000000000000000815260040160405180910390fd5b5b826006600084815260200190815260200160002060000160006101000a81548173ffffffffffffffffffffffffffffffffffffffff021916908373ffffffffffffffffffffffffffffffffffffffff160217905550818373ffffffffffffffffffffffffffffffffffffffff168273ffffffffffffffffffffffffffffffffffffffff167f8c5be1e5ebec7d5bd14f71427d1e84f3dd0314c0f7b2291e5b200ac8c7c3b92560405160405180910390a4505050565b606060008260ff160361078657604051806080016040528060468152602001612380604691399050610888565b60018260ff16036107b1576040518060800160405280604781526020016123c6604791399050610888565b60028260ff16036107dc576040518060600160405280603b815260200161240d603b91399050610888565b60038260ff1603610807576040518060600160405280603f8152602001612448603f91399050610888565b60048260ff160361084f576040518060400160405280601481526020017f73796e7468776176652073706f727473206361720000000000000000000000008152509050610888565b6040518060400160405280601481526020017f4e6f7420612056616c696420546f6b656e20494400000000000000000000000081525090505b919050565b600061089761119f565b6001546000540303905090565b60006108af826111a4565b90508373ffffffffffffffffffffffffffffffffffffffff168173ffffffffffffffffffffffffffffffffffffffff1614610916576040517fa114810000000000000000000000000000000000000000000000000000000000815260040160405180910390fd5b60008061092284611270565b915091506109388187610933611197565b611297565b6109845761094d86610948611197565b611021565b610983576040517f59c896be00000000000000000000000000000000000000000000000000000000815260040160405180910390fd5b5b600073ffffffffffffffffffffffffffffffffffffffff168573ffffffffffffffffffffffffffffffffffffffff16036109ea576040517fea553b3400000000000000000000000000000000000000000000000000000000815260040160405180910390fd5b6109f786868660016112db565b8015610a0257600082555b600560008773ffffffffffffffffffffffffffffffffffffffff1673ffffffffffffffffffffffffffffffffffffffff168152602001908152602001600020600081546001900391905081905550600560008673ffffffffffffffffffffffffffffffffffffffff1673ffffffffffffffffffffffffffffffffffffffff1681526020019081526020016000206000815460010191905081905550610ad085610aac8888876112e1565b7c020000000000000000000000000000000000000000000000000000000017611309565b600460008681526020019081526020016000208190555060007c0200000000000000000000000000000000000000000000000000000000841603610b565760006001850190506000600460008381526020019081526020016000205403610b54576000548114610b53578360046000838152602001908152602001600020819055505b5b505b838573ffffffffffffffffffffffffffffffffffffffff168773ffffffffffffffffffffffffffffffffffffffff167fddf252ad1be2c89b69c2b068fc378daa952ba7f163c4a11628f55a4df523b3ef60405160405180910390a4610bbe8686866001611334565b505050505050565b610be183838360405180602001604052806000815250610f4f565b505050565b6000610bf1826111a4565b9050919050565b60008073ffffffffffffffffffffffffffffffffffffffff168273ffffffffffffffffffffffffffffffffffffffff1603610c5f576040517f8f4eb60400000000000000000000000000000000000000000000000000000000815260040160405180910390fd5b67ffffffffffffffff600560008473ffffffffffffffffffffffffffffffffffffffff1673ffffffffffffffffffffffffffffffffffffffff16815260200190815260200160002054169050919050565b610cb861133a565b610cc260006113b8565b565b6000600860009054906101000a900473ffffffffffffffffffffffffffffffffffffffff16905090565b606060038054610cfd90611f7b565b80601f0160208091040260200160405190810160405280929190818152602001828054610d2990611f7b565b8015610d765780601f10610d4b57610100808354040283529160200191610d76565b820191906000526020600020905b815481529060010190602001808311610d5957829003601f168201915b5050505050905090565b610d8861133a565b600954610d943361147e565b82610d9f9190611fdb565b1115610de0576040517f08c379a0000000000000000000000000000000000000000000000000000000008152600401610dd79061205b565b60405180910390fd5b600a5481610dec61088d565b610df69190611fdb565b1115610e37576040517f08c379a0000000000000000000000000000000000000000000000000000000008152600401610e2e906120c7565b60405180910390fd5b610e4133826114d5565b50565b8060076000610e51611197565b73ffffffffffffffffffffffffffffffffffffffff1673ffffffffffffffffffffffffffffffffffffffff16815260200190815260200160002060008473ffffffffffffffffffffffffffffffffffffffff1673ffffffffffffffffffffffffffffffffffffffff16815260200190815260200160002060006101000a81548160ff0219169083151502179055508173ffffffffffffffffffffffffffffffffffffffff16610efe611197565b73ffffffffffffffffffffffffffffffffffffffff167f17307eab39ab6107e8899845ad3d59bd9653f200f220920489ca2b5937696c3183604051610f4391906119e0565b60405180910390a35050565b610f5a8484846108a4565b60008373ffffffffffffffffffffffffffffffffffffffff163b14610fbc57610f85848484846114f3565b610fbb576040517fd1a57ed600000000000000000000000000000000000000000000000000000000815260040160405180910390fd5b5b50505050565b60606000610fce611643565b90506000815103610fee5760405180602001604052806000815250611019565b80610ff884611663565b60405160200161100992919061216f565b6040516020818303038152906040525b915050919050565b6000600760008473ffffffffffffffffffffffffffffffffffffffff1673ffffffffffffffffffffffffffffffffffffffff16815260200190815260200160002060008373ffffffffffffffffffffffffffffffffffffffff1673ffffffffffffffffffffffffffffffffffffffff16815260200190815260200160002060009054906101000a900460ff16905092915050565b6110bd61133a565b600073ffffffffffffffffffffffffffffffffffffffff168173ffffffffffffffffffffffffffffffffffffffff160361112c576040517f08c379a000000000000000000000000000000000000000000000000000000000815260040161112390612210565b60405180910390fd5b611135816113b8565b50565b60008161114361119f565b11158015611152575060005482105b8015611190575060007c0100000000000000000000000000000000000000000000000000000000600460008581526020019081526020016000205416145b9050919050565b600033905090565b600090565b600080829050806111b361119f565b11611239576000548110156112385760006004600083815260200190815260200160002054905060007c0100000000000000000000000000000000000000000000000000000000821603611236575b6000810361122c576004600083600190039350838152602001908152602001600020549050611202565b809250505061126b565b505b5b6040517fdf2d9b4200000000000000000000000000000000000000000000000000000000815260040160405180910390fd5b919050565b60008060006006600085815260200190815260200160002090508092508254915050915091565b600073ffffffffffffffffffffffffffffffffffffffff8316925073ffffffffffffffffffffffffffffffffffffffff821691508382148383141790509392505050565b50505050565b60008060e883901c905060e86112f88686846116b3565b62ffffff16901b9150509392505050565b600073ffffffffffffffffffffffffffffffffffffffff83169250814260a01b178317905092915050565b50505050565b6113426116bc565b73ffffffffffffffffffffffffffffffffffffffff16611360610cc4565b73ffffffffffffffffffffffffffffffffffffffff16146113b6576040517f08c379a00000000000000000000000000000000000000000000000000000000081526004016113ad9061227c565b60405180910390fd5b565b6000600860009054906101000a900473ffffffffffffffffffffffffffffffffffffffff16905081600860006101000a81548173ffffffffffffffffffffffffffffffffffffffff021916908373ffffffffffffffffffffffffffffffffffffffff1602179055508173ffffffffffffffffffffffffffffffffffffffff168173ffffffffffffffffffffffffffffffffffffffff167f8be0079c531659141344cd1fd0a4f28419497f9722a3daafe3b4186f6b6457e060405160405180910390a35050565b600067ffffffffffffffff6040600560008573ffffffffffffffffffffffffffffffffffffffff1673ffffffffffffffffffffffffffffffffffffffff16815260200190815260200160002054901c169050919050565b6114ef8282604051806020016040528060008152506116c4565b5050565b60008373ffffffffffffffffffffffffffffffffffffffff1663150b7a02611519611197565b8786866040518563ffffffff1660e01b815260040161153b94939291906122f1565b6020604051808303816000875af192505050801561157757506040513d601f19601f820116820180604052508101906115749190612352565b60015b6115f0573d80600081146115a7576040519150601f19603f3d011682016040523d82523d6000602084013e6115ac565b606091505b5060008151036115e8576040517fd1a57ed600000000000000000000000000000000000000000000000000000000815260040160405180910390fd5b805181602001fd5b63150b7a0260e01b7bffffffffffffffffffffffffffffffffffffffffffffffffffffffff1916817bffffffffffffffffffffffffffffffffffffffffffffffffffffffff191614915050949350505050565b606060405180606001604052806036815260200161248760369139905090565b606060a060405101806040526020810391506000825281835b60011561169e57600184039350600a81066030018453600a810490508061167c575b50828103602084039350808452505050919050565b60009392505050565b600033905090565b6116ce8383611761565b60008373ffffffffffffffffffffffffffffffffffffffff163b1461175c57600080549050600083820390505b61170e60008683806001019450866114f3565b611744576040517fd1a57ed600000000000000000000000000000000000000000000000000000000815260040160405180910390fd5b8181106116fb57816000541461175957600080fd5b50505b505050565b600080549050600082036117a1576040517fb562e8dd00000000000000000000000000000000000000000000000000000000815260040160405180910390fd5b6117ae60008483856112db565b600160406001901b178202600560008573ffffffffffffffffffffffffffffffffffffffff1673ffffffffffffffffffffffffffffffffffffffff168152602001908152602001600020600082825401925050819055506118258361181660008660006112e1565b61181f8561191c565b17611309565b6004600083815260200190815260200160002081905550600080838301905073ffffffffffffffffffffffffffffffffffffffff85169150828260007fddf252ad1be2c89b69c2b068fc378daa952ba7f163c4a11628f55a4df523b3ef600080a4600183015b8181146118c657808360007fddf252ad1be2c89b69c2b068fc378daa952ba7f163c4a11628f55a4df523b3ef600080a460018101905061188b565b5060008203611901576040517f2e07630000000000000000000000000000000000000000000000000000000000815260040160405180910390fd5b8060008190555050506119176000848385611334565b505050565b60006001821460e11b9050919050565b6000604051905090565b600080fd5b600080fd5b60007fffffffff0000000000000000000000000000000000000000000000000000000082169050919050565b61197581611940565b811461198057600080fd5b50565b6000813590506119928161196c565b92915050565b6000602082840312156119ae576119ad611936565b5b60006119bc84828501611983565b91505092915050565b60008115159050919050565b6119da816119c5565b82525050565b60006020820190506119f560008301846119d1565b92915050565b600081519050919050565b600082825260208201905092915050565b60005b83811015611a35578082015181840152602081019050611a1a565b60008484015250505050565b6000601f19601f8301169050919050565b6000611a5d826119fb565b611a678185611a06565b9350611a77818560208601611a17565b611a8081611a41565b840191505092915050565b60006020820190508181036000830152611aa58184611a52565b905092915050565b6000819050919050565b611ac081611aad565b8114611acb57600080fd5b50565b600081359050611add81611ab7565b92915050565b600060208284031215611af957611af8611936565b5b6000611b0784828501611ace565b91505092915050565b600073ffffffffffffffffffffffffffffffffffffffff82169050919050565b6000611b3b82611b10565b9050919050565b611b4b81611b30565b82525050565b6000602082019050611b666000830184611b42565b92915050565b611b7581611b30565b8114611b8057600080fd5b50565b600081359050611b9281611b6c565b92915050565b60008060408385031215611baf57611bae611936565b5b6000611bbd85828601611b83565b9250506020611bce85828601611ace565b9150509250929050565b600060ff82169050919050565b611bee81611bd8565b8114611bf957600080fd5b50565b600081359050611c0b81611be5565b92915050565b600060208284031215611c2757611c26611936565b5b6000611c3584828501611bfc565b91505092915050565b611c4781611aad565b82525050565b6000602082019050611c626000830184611c3e565b92915050565b600080600060608486031215611c8157611c80611936565b5b6000611c8f86828701611b83565b9350506020611ca086828701611b83565b9250506040611cb186828701611ace565b9150509250925092565b600060208284031215611cd157611cd0611936565b5b6000611cdf84828501611b83565b91505092915050565b611cf1816119c5565b8114611cfc57600080fd5b50565b600081359050611d0e81611ce8565b92915050565b60008060408385031215611d2b57611d2a611936565b5b6000611d3985828601611b83565b9250506020611d4a85828601611cff565b9150509250929050565b600080fd5b600080fd5b7f4e487b7100000000000000000000000000000000000000000000000000000000600052604160045260246000fd5b611d9682611a41565b810181811067ffffffffffffffff82111715611db557611db4611d5e565b5b80604052505050565b6000611dc861192c565b9050611dd48282611d8d565b919050565b600067ffffffffffffffff821115611df457611df3611d5e565b5b611dfd82611a41565b9050602081019050919050565b82818337600083830152505050565b6000611e2c611e2784611dd9565b611dbe565b905082815260208101848484011115611e4857611e47611d59565b5b611e53848285611e0a565b509392505050565b600082601f830112611e7057611e6f611d54565b5b8135611e80848260208601611e19565b91505092915050565b60008060008060808587031215611ea357611ea2611936565b5b6000611eb187828801611b83565b9450506020611ec287828801611b83565b9350506040611ed387828801611ace565b925050606085013567ffffffffffffffff811115611ef457611ef361193b565b5b611f0087828801611e5b565b91505092959194509250565b60008060408385031215611f2357611f22611936565b5b6000611f3185828601611b83565b9250506020611f4285828601611b83565b9150509250929050565b7f4e487b7100000000000000000000000000000000000000000000000000000000600052602260045260246000fd5b60006002820490506001821680611f9357607f821691505b602082108103611fa657611fa5611f4c565b5b50919050565b7f4e487b7100000000000000000000000000000000000000000000000000000000600052601160045260246000fd5b6000611fe682611aad565b9150611ff183611aad565b925082820190508082111561200957612008611fac565b5b92915050565b7f457863656564656420746865206c696d69740000000000000000000000000000600082015250565b6000612045601283611a06565b91506120508261200f565b602082019050919050565b6000602082019050818103600083015261207481612038565b9050919050565b7f4e6f7420656e6f75676820746f6b656e73206c65667400000000000000000000600082015250565b60006120b1601683611a06565b91506120bc8261207b565b602082019050919050565b600060208201905081810360008301526120e0816120a4565b9050919050565b600081905092915050565b60006120fd826119fb565b61210781856120e7565b9350612117818560208601611a17565b80840191505092915050565b7f2e6a736f6e000000000000000000000000000000000000000000000000000000600082015250565b60006121596005836120e7565b915061216482612123565b600582019050919050565b600061217b82856120f2565b915061218782846120f2565b91506121928261214c565b91508190509392505050565b7f4f776e61626c653a206e6577206f776e657220697320746865207a65726f206160008201527f6464726573730000000000000000000000000000000000000000000000000000602082015250565b60006121fa602683611a06565b91506122058261219e565b604082019050919050565b60006020820190508181036000830152612229816121ed565b9050919050565b7f4f776e61626c653a2063616c6c6572206973206e6f7420746865206f776e6572600082015250565b6000612266602083611a06565b915061227182612230565b602082019050919050565b6000602082019050818103600083015261229581612259565b9050919050565b600081519050919050565b600082825260208201905092915050565b60006122c38261229c565b6122cd81856122a7565b93506122dd818560208601611a17565b6122e681611a41565b840191505092915050565b60006080820190506123066000830187611b42565b6123136020830186611b42565b6123206040830185611c3e565b818103606083015261233281846122b8565b905095945050505050565b60008151905061234c8161196c565b92915050565b60006020828403121561236857612367611936565b5b60006123768482850161233d565b9150509291505056fe6120626f776c206f6620736f7570207468617420697320616c736f206120706f7274616c20746f20616e6f746865722064696d656e73696f6e2c206469676974616c20617274612066616e7461737920756e6465727761746572206b696e67646f6d2077697468206d65726d6169647320616e642062696f6c756d696e657363656e742063726561747572657361207375727265616c20646573657274206f61736973207769746820666c6f6174696e6720636163746920616e64206120707572706c6520736b79616e20617374726f6e61757420706c6179696e67206261736b657462616c6c2077697468206361747320696e2073706163652c206469676974616c20617274697066733a2f2f516d63336f70474246374270367a6537656768734e78736b533632765055546b4a696e55646b6d5247436f576f592fa264697066735822122064e3a7debf378f1b7d258dca70f647dc279ee4aa44817826a7d84ee9590bada364736f6c63430008120033",
  "linkReferences": {},
  "deployedLinkReferences": {}
}